:020000040800F2
:1000000000500020E11000083111000831110008F3
:100010003111000831110008311100080000000002
:100020000000000000000000000000003111000886
:100030003111000800000000311100084D080008CF
:100040003111000831110008311100083111000888
:100050003111000831110008311100083111000878
:100060003111000831110008311100083111000868
:100070003111000831110008311100083111000858
:100080003111000831110008311100083111000848
:100090003111000831110008311100083111000838
:1000A0003111000831110008311100083111000828
:1000B0003111000831110008311100083111000818
:1000C0003111000831110008311100083111000808
:1000D00031110008CD0B0008311100083111000862
:1000E0003111000831110008311100080000000032
:1000F0000000000000000000000000000000000000
:0C01000000000000000000005FF808F1A3
:10010C0010B5054C237833B9044B13B10448AFF345
:10011C0000800123237010BD4C040020000000005F
:10012C009812000808B5034B1BB103490348AFF301
:10013C00008008BD00000000500400209812000848
:10014C0070B5354C01220221002000F07FFA237893
:10015C00B3B903F0FF05314BDB7803B970BD66888A
:10016C0000F022FD63882E4AB6B2322B905536D859
:10017C00638801339BB26380BDE8704000F0E4BC3F
:10018C00658800F011FD264B6288ADB2585592B2CD
:10019C009A5C0A2A28D093F828303C2B30D01F4D7B
:1001AC0022792B889A4216D3AB78012B2ED00025BE
:1001BC002846A57100F0CEFC60791A4B6188162890
:1001CC0094BF1846581C00F06DF965806571BDE848
:1001DC00704000F0B9BC63791D2BC9D9E4E72846FF
:1001EC00658000F0B7FCC7E76288272AD3D922794B
:1001FC000132D2B2227162790132D2B26271CAE793
:10020C0001230020A37100F0A5FCB5E700F02AFE45
:10021C000023AB70CBE700BF680400200000002077
:10022C00740400209C0400200D4A10B4A2FB003280
:10023C00D208092A4FF0000488BFFF22084B094955
:10024C00A3FB00C34FEAD30303EB8303A0EB4303ED
:10025C0098BF303230334B700A708C7010BC7047C2
:10026C00CDCCCCCCEC090020034B04481B68044AD1
:10027C0004498360116018470420000868040020BA
:10028C0008ED00E0002000083038C0B20A2828BF72
:10029C00FF20704709289ABF3030C0B2FF2070474A
:1002AC00092808B503D9FFF7BFFF054808BD034669
:1002BC000021034A303313705170014808BD00BF50
:1002CC00EC090020002210B4104C1149235C0A8068
:1002DC000A2B16D117E00D2B15D0303BDBB20A2BB5
:1002EC0028BFFF230A88013002EB8202520092B22F
:1002FC000A800A88C0B21A44235C92B20A2B0A8084
:10030C0001D0432BE7D110BC704700BF7404002010
:10031C0000000020F0B4037A302B31D0342B2DD1D7
:10032C00C278A2F13003DDB2092D88BFA2F13703E8
:10033C00027988BFDDB2A2F13003DCB2092C84BF94
:10034C00A2F13703DCB24379A3F13001C9B2092918
:10035C0084BF373BD9B283795048A3F13002D2B273
:10036C00092A84BF373BDAB2038843EA054343EAE0
:10037C00045343EA016343EA02730360F0BC704721
:10038C004378C578A3F13002D4B2092C88BFA3F10D
:10039C003702837888BFD4B2A3F13002D2B2092AD3
:1003AC0084BFA3F13702D2B2A5F1300342EA0412A2
:1003BC000479DFB2A4F13001092FCEB284BFA5F1CC
:1003CC003703DFB2092E437984BFA4F13701CEB2D3
:1003DC00A3F13001CDB2092D88BFA3F13701DFF8AD
:1003EC00BCC088BFCDB28179DCF80030A1F13004FB
:1003FC00E4B21B0C092C4FEA034388BF373943EA9C
:10040C00073388BFCCB243EA0621D2B241EA0511C8
:10041C0021435208CCF800103AD0531E071DDBB212
:10042C001F4E07EB8307447A857AA4F130035FFAF9
:10043C0083FCBCF1090F88BFA4F13703A5F130048C
:10044C0088BF5FFA83FCE3B2092BC47A84BFA5F1A1
:10045C003703DBB2A4F13005EDB243EA0C1390F88C
:10046C000CC0092D88BFA4F13705ACF13004E4B2FF
:10047C0088BFEDB2092C84BFACF13704E4B243EA77
:10048C000533043043EA0423874226F8023BCAD1E1
:10049C00F0BC41F00061024800F09EBC1C00002042
:1004AC00F009002070B50E460546FFF733FF56B134
:1004BC0000242B5D01340A2BA4B2FAD12819FFF7C2
:1004CC0029FFA642F5D870BD0E494B6823F00103F5
:1004DC004B604B6823F002034B600B6843F0010345
:1004EC000B600B68980706D4074B01E0013B02D068
:1004FC000A689207FAD5034A136823F400231360A1
:10050C00704700BF00100240A0860100012811D0E6
:10051C0009D3022806D10120094B88409969084368
:10052C009861704770470120054B88405969084312
:10053C0058617047024B8840D9690843D8617047AD
:10054C0000100240012815D00BD3022808D101203D
:10055C000C4B00FA01F1986920EA01009861704790
:10056C0070470120074B00FA01F1586920EA01009D
:10057C0058617047034B8840D96921EA0000D86163
:10058C00704700BF00100240012810B42DD017D3C3
:10059C00022813D107293DD90F290FD80F24284839
:1005AC00A1F10803DBB241689B009C4021EA0401E5
:1005BC004160446802FA03F12143416010BC70476A
:1005CC00072939D90F29F9D80F201E4BA1F108049E
:1005DC00E4B25968A400A04021EA000159605868AF
:1005EC0002FA04F101435960E8E7072921D90F29E0
:1005FC00E4D80F24144BA1F10800C0B25968800054
:10060C00844021EA040159605C6802FA00F121433C
:10061C005960D3E70F240A4B186889008C4020EAF4
:10062C0004001860186802FA01F10143196010BC4B
:10063C0070470F24044BEFE70F24024BECE700BF8D
:10064C000010014000080140000C014001281AD0A4
:10065C000DD302280AD1012A2DD032B90122194812
:10066C008A40C36823EA0202C26070477047012ABD
:10067C001BD0002AF9D1012213488A40C36823EA0F
:10068C000202C2607047012A09D0002AEDD10F4B3B
:10069C0000FA01F2D86820EA0202DA6070470B4BCC
:1006AC008A40D9680A43DA607047074B8A40D96898
:1006BC000A43DA607047034B8A40D9680A43DA6010
:1006CC00704700BF0010014000080140000C0140C1
:1006DC00012802D009D3022805D1074B9868C840DD
:1006EC0000F00100704700207047044B9868C84028
:1006FC0000F00100704700BF000C014000080140F1
:10070C00012817D00CD3022809D1B9B1012914D171
:10071C004FF0113303FB02F2164B5A600DE0704799
:10072C00D1B1012909D14FF0113303FB02F2124B65
:10073C005A60704749B1012915D070474FF01133F9
:10074C0003FB02F20B4B1A6070474FF0113303FBA3
:10075C0002F20A4B1A6070474FF0113303FB02F29E
:10076C00054B1A6070474FF0113303FB02F2034B39
:10077C005A6070470010014000080140000C014015
:10078C00012815D00BD3022808D1A9B1012912D107
:10079C001549CB68DBB21A43CA600CE07047C1B193
:1007AC00012908D11149CB68DBB21A43CA607047E2
:1007BC0069B1012912D0704701F1804101F58831EE
:1007CC00CB68D2B203F47F431A43CA60704708491E
:1007DC00F6E701F1804101F58431F1E70449CB687A
:1007EC00DBB21A43CA607047001001400008014098
:1007FC00000C014001280DD013D3022801D0002099
:10080C0070470C4B986880B249B10129F8D100F4BB
:10081C007F407047084B986880B20029F5D1C0B270
:10082C007047064B986880B20029F8D00129E7D1AF
:10083C00EDE700BF00100140000C01400008014032
:10084C00014B1B68184700BFB80A0020014B186009
:10085C00704700BFB80A00200222014B1A60704793
:10086C0010E000E0014B9868704700BF10E000E01A
:10087C000022044B013858609A601A6842F0010259
:10088C001A60704710E000E0044B1A6822F0020274
:10089C001A601A6842EA40001860704710E000E0E5
:1008AC00024B1868C0F30040704700BF10E000E036
:1008BC00024A136823F001031360704710E000E054
:1008CC0010B50446FFF7C8FF0020FFF7DDFF4FF41B
:1008DC007A7000FB04F0FFF7CBFFFFF7E1FF002875
:1008EC00FBD010BD10B50446FFF7B6FF0020FFF794
:1008FC00CBFF2046FFF7BCFFFFF7D2FF0028FBD051
:10090C0010BD00BF012300F01F01034A40098B40BA
:10091C0042F82030704700BF00E100E0012243099B
:10092C00044900F01F00203302FA00F041F82300C4
:10093C00704700BF00E100E001224309044900F0C8
:10094C001F00403302FA00F041F82300704700BF4B
:10095C0000E100E001224309044900F01F0060336C
:10096C0002FA00F041F82300704700BF00E100E0FC
:10097C00054A4309803352F8233000F01F0023FA54
:10098C0000F000F00100704700E100E010B41E4CD4
:10099C0000281C444FEA142401FA04F444EA02042B
:1009AC00E4B20BDB240100F16040E4B200F56140DD
:1009BC0080F80043154A10BCD3607047C1B2CA1C02
:1009CC00D2B2012A11D9B0F1FF3F0ED0043016D0AB
:1009DC008A1DD2B2012AEDD801F10802D2B2D2009E
:1009EC0004320A4994400C62E4E752B2D200043259
:1009FC0094400649054A8C61D36010BC704703498A
:100A0C002407CC61D6E700BF00FD05FA00ED00E03D
:100A1C000022164B45211A60DA6822F48052DA6003
:100A2C00DA6822F48062DA60DA6822F02002DA6096
:100A3C00DA6822F04002DA60DA6822F08002DA60CA
:100A4C00DA6842F00802DA60DA6842F00402DA602E
:100A5C001A6922F480521A611A6922F400521A613E
:100A6C009960DA6842F40052DA607047003801404D
:100A7C00054B1A46586013685B06FCD5136823F0C7
:100A8C0040031360704700BF00380140037873B116
:100A9C000021074A536013685B06FCD513680131CB
:100AAC0023F04003C9B21360435C002BF2D17047B2
:100ABC00003801400C490B6823F020030B600B68D5
:100ACC00C3F3401353B9094801E083420AD00A68C2
:100ADC0001339206F9D5054A934203D0024B58686C
:100AEC00C0B27047FF207047003801404054890065
:100AFC0030B40024114D124912480B6823F0200326
:100B0C000B600B6813F0200302D007E083420DD07A
:100B1C000A6801339206F9D5834207D04B68DBB2E1
:100B2C000D2B05D0E2B2AB540134E6E7FF23F9E715
:100B3C000023E4B22B55014830BC7047BC0A00209E
:100B4C0000380140405489000022014B1A60704764
:100B5C0000380140052809D8DFE800F0150F080916
:100B6C000803104AD36843F02003D36070470D4A42
:100B7C00D36843F04003D36070470A4AD36843F00C
:100B8C008003D3607047074BDA6822F02002DA60EA
:100B9C00DA6822F04002DA60DA6822F08002DA6069
:100BAC00704700BF00380140014B5868C0B2704715
:100BBC0000380140014B1860704700BFD00A00207C
:100BCC000021024A024B11601B6818470038014093
:100BDC00D00A0020F8B5FFF71BFF0020FFF7BAFF83
:100BEC001448FFF753FF4FF47A70FFF769FE0022A9
:100BFC00114D16462C46114F05F196033A8004F818
:100C0C00016F9C42FBD10E48FFF740FF4FF4FA6096
:100C1C00FFF756FE00233E8005F8013FA542FBD1AD
:100C2C000848FFF733FFBDE8F8404FF4FA60FFF7D0
:100C3C0047BE00BF3C130008730400206A04002068
:100C4C004413000854130008FFF7B4BF002238B552
:100C5C000C46104B104905460A80104603F19602CB
:100C6C0003F8010F9342FBD10C48FFF70FFF284606
:100C7C00FFF70CFF0A48FFF709FF2046FFF706FFB6
:100C8C000848FFF703FFBDE838404FF4FA50FFF770
:100C9C0017BE00BF730400206A0400206413000810
:100CAC00841300087013000838B505460C460A4832
:100CBC00FFF7ECFE2846FFF7E9FE0848FFF7E6FED3
:100CCC002046FFF7E3FE0648FFF7E0FEBDE838409C
:100CDC0040F6B830FFF7F4BD741300088813000811
:100CEC006013000870B50E46054614491448FFF70A
:100CFC00DBFF144C1448FFF7C9FE3046FFF7C6FE65
:100D0C002046FFF7C3FE4FF4FA60FFF7D9FDFFF75B
:100D1C001BFF0520FFF71EFF2846FFF7B7FE2046F6
:100D2C00FFF7B4FE4FF4FA60FFF7CAFD0020FFF79F
:100D3C0011FFFFF709FF262070BD00BF8C130008C0
:100D4C009013000860130008A013000870B50E463D
:100D5C00054614491448FFF7A7FF144C1448FFF735
:100D6C0095FE3046FFF792FE2046FFF78FFE4FF4BC
:100D7C00FA60FFF7A5FDFFF7E7FE0520FFF7EAFE97
:100D8C002846FFF783FE2046FFF780FE4FF4FA60FB
:100D9C00FFF796FD0020FFF7DDFEBDE87040FFF782
:100DAC00D3BE00BF8C13000890130008601300081A
:100DBC00A013000830B400242146054D431E00F159
:100DCC0095022C8003F8011F9342FBD130BC704775
:100DDC006A040020704700BF632A36D81E4BF0B45B
:100DEC001C69250606D51D4E1D4D5E605D601C6997
:100DFC002406FAD412B30025174C236930F8156079
:100E0C0043F0010323616F000E80E368DB07FCD421
:100E1C00C35BB342E36818BF05F1FF3543F0200311
:100E2C0018BFADB2E360236905F10105ADB208BF8F
:100E3C00023123F00103AA422361DED8F0BC064A3A
:100E4C00136943F0800313617047034A136943F03D
:100E5C0080031361704700BF0020024023016745E7
:100E6C00AB89EFCD70B408261D4A1E4D1E4CD368BD
:100E7C00D907FCD4136943F00203136113691B06F1
:100E8C0004D55560546013691806FAD406F500337E
:100E9C009B025361116941F040011161D168C9078E
:100EAC00FCD4D16803F5806041F02001D160116958
:100EBC0021F00201116101E098420CD01978013344
:100ECC00FF29F9D0402ED2D170BC054A136943F0EA
:100EDC008003136170470136F6B2402EC7D1F3E799
:100EEC000020024023016745AB89EFCD2DE9F04D81
:100EFC008CB0FFF7E9FA0E210220FFF707FB022165
:100F0C000846FFF703FB04210020FFF7FFFA25201A
:100F1C00FFF7F8FC092200201146FFF735FB0422ED
:100F2C000A210020FFF730FB012200201146FFF7B9
:100F3C002BFB012202210020FFF726FBFFF78CFC84
:100F4C00FFF748FE5449554C01F11000FFF77EFEA7
:100F5C0053482746FFF778FE524E534D002201218D
:100F6C001046FFF773FB31462846FFF7BBFE4F4B8D
:100F7C00D876DB7EE35C312B0DD04C4BDB7EE35C17
:100F8C00302BEBD13846FFF715FF0022012110461C
:100F9C00FFF75CFBE2E74148FFF70CFF414944488F
:100FAC00FFF7A0FE0024414DA346E876E87EFFF74C
:100FBC0089F901233F4F39483B70EC70FFF7FAFE7B
:100FCC005FFA8BF00928A2463B4E59D83030C5B297
:100FDC00DFF8F480357086F801A0EC460024DFF8C9
:100FEC00ECE0BEE80F00ACE80F00BEE80F00ACE888
:100FFC000F009EE80F00ACE80700ACF8003001349D
:10100C00E4B21DF804200DEB0403242AF7D165B1DA
:10101C0023465A1C0CA91944D3B21A1BD2B201F89C
:10102C00305CB55C002DF4D16B4483F800A04146D4
:10103C006846FFF78BFE1948FFF7BCFEBB79012B06
:10104C0001D13578C9E701210020FFF741FB0128C8
:10105C001CD0012200201146FFF7F8FA134B3A7905
:10106C001B889A4206D3154B154A1B6815490A6012
:10107C00BB6098470BF1010B5FFA8BF00928A5D9DF
:10108C00FFF7D2F8DFF848803578A6E70022014652
:10109C001046FFF7DBFAE1E704000020740400209F
:1010AC004D010008B8120008BC1200080000002016
:1010BC00E412000868040020EC0900200420000859
:1010CC000020000808ED00E0B41200080C13000822
:1010DC00B0120008DFF834D0002103E00C4B5B5851
:1010EC00435004310B480C4B42189A42F6D30B4A2E
:1010FC0002E0002342F8043B094B9A42F9D3FFF774
:10110C00E3F900F011F8FFF7F1FE704700500020F2
:10111C00BC130008000000204C0400204C040020EC
:10112C00F80A0020FEE7000070B50D4E0D4D761B41
:10113C00B61006D00024013455F8043B9847A6425B
:10114C00F9D1094E094D00F0A1F8761BB61006D066
:10115C000024013455F8043B9847A642F9D170BDE0
:10116C00B0130008B0130008B8130008B01300083F
:10117C00024B13B1024800F005B8704700000000A4
:10118C009D110008002301461A46184600F01EB8AF
:10119C0038B50A4C0A4D641BA4100AD004F18043E4
:1011AC00013B05EB8305013C55F804399847002CAD
:1011BC00F9D1BDE8384000F06FB800BFBC1300088F
:1011CC00B8130008704700BF704700BF2DE9F84303
:1011DC002B4D0646286898460F469146FFF7F2FFBE
:1011EC00284B1C68D4F84831002B3DD05A681F2A74
:1011FC000DDC02F1010C16BB0232C3F804C02868E6
:10120C0043F82270FFF7E0FF0020BDE8F8831E4B87
:10121C007BB34FF4C870AFF30080034648B3002093
:10122C00D4F848114FF0010CC3E900100246C4F881
:10123C004831C3F88801C3F88C01002EDCD00121A1
:10124C0003EB8204C4F88890D3F8880191400843DA
:10125C00022EC3F88801C4F80881CDD1D3F88C01D3
:10126C000143C3F88C11C7E704F5A673C4F84831E1
:10127C00BCE72868FFF7A8FF4FF0FF30C5E700BFB9
:10128C0048040020AC13000800000000F8B500BFB3
:10129C00F8BC08BC9E467047F8B500BFF8BC08BC4B
:0412AC009E467047A3
:1012B00034370000343600003339000047455420ED
:1012C000687474703A2F2F62666F74612E6672654F
:1012D000657661722E636F6D2F666C61672E747810
:1012E0007400000047455420687474703A2F2F62D0
:1012F000666F74612E667265657661722E636F6DBE
:101300002F75706C6F6164732F0000004745542087
:10131000687474703A2F2F62666F74612E667265FE
:10132000657661722E636F6D2F7061727365722FB7
:101330003F426C6F636B3D242400000041540D0A52
:101340000000000041542B43574D4F44453D330DA1
:101350000A00000041542B4349504D4F44453D3055
:101360000D0A000041542B43574A41503D220000D2
:10137000220D0A0041542B43495053544152543DCD
:1013800022544350222C2200222C0000383000002E
:101390003136322E3235332E3135352E323236005B
:1013A00041542B43495053454E443D0020000020FA
:0813B0007D1100083101000865
:0413B8000D0100081B
:1013BC00FFFF010141613039353133373832363472
:1013CC0000000000766F64613232002000000008DB
:1013DC00000000000C03002074030020DC0300203C
:1013EC0000000000000000000000000000000000F1
:1013FC0000000000000000000000000000000000E1
:10140C0000000000000000000000000000000000D0
:10141C0000000000000000000000000000000000C0
:10142C0000000000000000000000000000000000B0
:10143C0000000000000000000000000000000000A0
:10144C000000000000000000000000000000000090
:10145C000000000000000000000000000000000080
:10146C000000000000000000000000000000000070
:10147C00000000000000000001000000000000005F
:10148C000E33CDAB34126DE6ECDE05000B00000024
:10149C000000000000000000000000000000000040
:1014AC000000000000000000000000000000000030
:1014BC000000000000000000000000000000000020
:1014CC000000000000000000000000000000000010
:0C17FC000000000000000000D40A0020E3
:04000005080010E1FE
:00000001FF
