:020000040800F2
:10000000005000201D0700086D0700086D0700085C
:100010006D0700086D0700086D070008000000006C
:100020000000000000000000000000006D07000854
:100030006D070008000000006D070008E5040008D7
:100040006D0700086D0700086D0700086D070008C0
:100050006D0700086D0700086D0700086D070008B0
:100060006D0700086D0700086D0700086D070008A0
:100070006D0700086D0700086D0700086D07000890
:100080006D0700086D0700086D0700086D07000880
:100090006D0700086D0700086D0700086D07000870
:1000A0006D0700086D0700086D0700086D07000860
:1000B0006D0700086D0700086D0700086D07000850
:1000C0006D0700086D0700086D0700086D07000840
:1000D0006D070008A90600086D0700086D070008F5
:1000E0006D0700086D0700086D070008000000009C
:1000F0000000000000000000000000000000000000
:0C01000000000000000000005FF808F1A3
:10010C0010B5054C237833B9044B13B10448AFF345
:10011C0000800123237010BD2C040020000000007F
:10012C00D408000808B5034B1BB103490348AFF3CF
:10013C00008008BD0000000030040020D408000836
:10014C00034B04491B680448044A086013601847B1
:10015C000410000808ED00E000100008480400201E
:10016C000E494B6823F001034B604B6823F00203EC
:10017C004B600B6843F001030B600B68980706D4C7
:10018C00074B01E0013B02D00A689207FAD5034AFB
:10019C00136823F400231360704700BF0010024063
:1001AC00A0860100012811D009D3022806D1012014
:1001BC00094B884099690843986170477047012042
:1001CC00054B88405969084358617047024B884079
:1001DC00D9690843D861704700100240012815D036
:1001EC000BD3022808D101200C4B00FA01F19869BD
:1001FC0020EA01009861704770470120074B00FA14
:10020C0001F1586920EA010058617047034B88409E
:10021C00D96921EA0000D861704700BF0010024084
:10022C00012810B42DD017D3022813D107293DD99A
:10023C000F290FD80F242848A1F10803DBB241681D
:10024C009B009C4021EA04014160446802FA03F1DE
:10025C002143416010BC7047072939D90F29F9D8BF
:10026C000F201E4BA1F10804E4B25968A400A04071
:10027C0021EA00015960586802FA04F101435960FF
:10028C00E8E7072921D90F29E4D80F24144BA1F151
:10029C000800C0B259688000844021EA040159600A
:1002AC005C6802FA00F121435960D3E70F240A4B32
:1002BC00186889008C4020EA04001860186802FA5B
:1002CC0001F10143196010BC70470F24044BEFE798
:1002DC000F24024BECE700BF001001400008014066
:1002EC00000C014001281AD00DD302280AD1012A92
:1002FC002DD032B9012219488A40C36823EA020280
:10030C00C26070477047012A1BD0002AF9D1012224
:10031C0013488A40C36823EA0202C2607047012A6C
:10032C0009D0002AEDD10F4B00FA01F2D86820EA6F
:10033C000202DA6070470B4B8A40D9680A43DA60D4
:10034C007047074B8A40D9680A43DA607047034B01
:10035C008A40D9680A43DA60704700BF0010014038
:10036C0000080140000C0140012802D009D30228EA
:10037C0005D1074B9868C84000F001007047002079
:10038C007047044B9868C84000F00100704700BFEC
:10039C00000C014000080140012817D00CD30228A2
:1003AC0009D1B9B1012914D14FF0113303FB02F279
:1003BC00164B5A600DE07047D1B1012909D14FF0AD
:1003CC00113303FB02F2124B5A60704749B10129F9
:1003DC0015D070474FF0113303FB02F20B4B1A6030
:1003EC0070474FF0113303FB02F20A4B1A6070474F
:1003FC004FF0113303FB02F2054B1A6070474FF0BC
:10040C00113303FB02F2034B5A607047001001409A
:10041C0000080140000C0140012815D00BD3022824
:10042C0008D1A9B1012912D11549CB68DBB21A4305
:10043C00CA600CE07047C1B1012908D11149CB68E1
:10044C00DBB21A43CA60704769B1012912D07047F8
:10045C0001F1804101F58831CB68D2B203F47F43BE
:10046C001A43CA6070470849F6E701F1804101F56B
:10047C008431F1E70449CB68DBB21A43CA60704798
:10048C000010014000080140000C014001280DD073
:10049C0013D3022801D0002070470C4B986880B20F
:1004AC0049B10129F8D100F47F407047084B986896
:1004BC0080B20029F5D1C0B27047064B986880B263
:1004CC000029F8D00129E7D1EDE700BF0010014069
:1004DC00000C014000080140014B1B68184700BF8D
:1004EC0054040020014B1860704700BF54040020D6
:1004FC000222014B1A60704710E000E0014B986833
:10050C00704700BF10E000E00022044B0138586037
:10051C009A601A6842F001021A60704710E000E01D
:10052C00044B1A6822F002021A601A6842EA400070
:10053C001860704710E000E0024B1868C0F30040F0
:10054C00704700BF10E000E0024A136823F001037B
:10055C001360704710E000E00022164B45211A6032
:10056C00DA6822F48052DA60DA6822F48062DA60A7
:10057C00DA6822F02002DA60DA6822F04002DA60EF
:10058C00DA6822F08002DA60DA6842F00802DA6097
:10059C00DA6842F00402DA601A6922F480521A61B5
:1005AC001A6922F400521A619960DA6842F4005216
:1005BC00DA60704700380140054B1A4658601368E2
:1005CC005B06FCD5136823F040031360704700BF33
:1005DC0000380140037873B10021074A5360136857
:1005EC005B06FCD51368013123F04003C9B21360DC
:1005FC00435C002BF2D17047003801400C490B686A
:10060C0023F020030B600B68C3F3401353B9094864
:10061C0001E083420AD00A6801339206F9D5054AF3
:10062C00934203D0024B5868C0B27047FF2070470A
:10063C00003801404054890030B40024114D124957
:10064C0012480B6823F020030B600B6813F0200397
:10065C0002D007E083420DD00A6801339206F9D527
:10066C00834207D04B68DBB20D2B05D0E2B2AB5402
:10067C000134E6E7FF23F9E70023E4B22B550148E8
:10068C0030BC7047580400200038014040548900A9
:10069C00014B1860704700BF6C0400200021024A17
:1006AC00024B11601B681847003801406C04002095
:1006BC0008B5FFF755FD0E210220FFF773FD02214F
:1006CC000846FFF76FFD04210020FFF76BFD0922A0
:1006DC0000201146FFF7A4FD04220A210020FFF799
:1006EC009FFDFFF705FF0748FFF7FCFE0120FFF712
:1006FC0017FF0548FFF708FF044A1379002BFCD0BD
:10070C00002008BD4D010008C0E1E40048040020B1
:10071C00DFF834D0002103E00C4B5B58435004311C
:10072C000B480C4B42189A42F6D30B4A02E00023BA
:10073C0042F8043B094B9A42F9D3FFF711FD00F044
:10074C0011F8FFF7B5FF704700500020FC080008B7
:10075C00000000202C0400202C0400209404002015
:10076C00FEE7000070B50D4E0D4D761BB61006D091
:10077C000024013455F8043B9847A642F9D1094EA0
:10078C00094D00F0A1F8761BB61006D000240134F8
:10079C0055F8043B9847A642F9D170BDF008000803
:1007AC00F0080008F8080008F0080008024B13B124
:1007BC00024800F005B8704700000000D907000897
:1007CC00002301461A46184600F01EB838B50A4CEC
:1007DC000A4D641BA4100AD004F18043013B05EBC5
:1007EC008305013C55F804399847002CF9D1BDE834
:1007FC00384000F06FB800BFFC080008F80800088B
:10080C00704700BF704700BF2DE9F8432B4D0646DB
:10081C00286898460F469146FFF7F2FF284B1C6854
:10082C00D4F84831002B3DD05A681F2A0DDC02F158
:10083C00010C16BB0232C3F804C0286843F82270BE
:10084C00FFF7E0FF0020BDE8F8831E4B7BB34FF4AD
:10085C00C870AFF30080034648B30020D4F84811A9
:10086C004FF0010CC3E900100246C4F84831C3F83C
:10087C008801C3F88C01002EDCD0012103EB82042B
:10088C00C4F88890D3F8880191400843022EC3F82D
:10089C008801C4F80881CDD1D3F88C010143C3F889
:1008AC008C11C7E704F5A673C4F84831BCE7286877
:1008BC00FFF7A8FF4FF0FF30C5E700BF280400206A
:1008CC00EC08000800000000F8B500BFF8BC08BC3C
:1008DC009E467047F8B500BFF8BC08BC9E467047F2
:0408EC0000000020E8
:0808F000B907000831010008FE
:0408F8000D010008E6
:1008FC0000000000EC02002054030020BC03002088
:10090C0000000000000000000000000000000000DB
:10091C0000000000000000000000000000000000CB
:10092C0000000000000000000000000000000000BB
:10093C0000000000000000000000000000000000AB
:10094C00000000000000000000000000000000009B
:10095C00000000000000000000000000000000008B
:10096C00000000000000000000000000000000007B
:10097C00000000000000000000000000000000006B
:10098C00000000000000000000000000000000005B
:10099C00000000000000000001000000000000004A
:1009AC000E33CDAB34126DE6ECDE05000B0000000F
:1009BC00000000000000000000000000000000002B
:1009CC00000000000000000000000000000000001B
:1009DC00000000000000000000000000000000000B
:1009EC0000000000000000000000000000000000FB
:0C0D1C0000000000000000007004002037
:040000050800071DCB
:00000001FF
